{
  "contractName": "SimpleMetaTX",
  "abi": [
    {
      "inputs": [],
      "payable": false,
      "stateMutability": "nonpayable",
      "type": "constructor"
    },
    {
      "anonymous": false,
      "inputs": [
        {
          "indexed": true,
          "internalType": "address",
          "name": "delegate",
          "type": "address"
        },
        {
          "indexed": false,
          "internalType": "bytes32",
          "name": "hash",
          "type": "bytes32"
        }
      ],
      "name": "METATX",
      "type": "event"
    },
    {
      "constant": true,
      "inputs": [],
      "name": "owner",
      "outputs": [
        {
          "internalType": "address",
          "name": "",
          "type": "address"
        }
      ],
      "payable": false,
      "stateMutability": "view",
      "type": "function"
    },
    {
      "constant": false,
      "inputs": [
        {
          "internalType": "address",
          "name": "_owner",
          "type": "address"
        }
      ],
      "name": "setOwner",
      "outputs": [],
      "payable": false,
      "stateMutability": "nonpayable",
      "type": "function"
    },
    {
      "constant": false,
      "inputs": [
        {
          "internalType": "bytes",
          "name": "_sig",
          "type": "bytes"
        },
        {
          "internalType": "address",
          "name": "_signer",
          "type": "address"
        },
        {
          "internalType": "address",
          "name": "_owner",
          "type": "address"
        },
        {
          "internalType": "uint256",
          "name": "_timeStamp",
          "type": "uint256"
        }
      ],
      "name": "setOwner",
      "outputs": [],
      "payable": false,
      "stateMutability": "nonpayable",
      "type": "function"
    }
  ],
  "bytecode": "0x608060405234801561001057600080fd5b50336000806101000a81548173ffffffffffffffffffffffffffffffffffffffff021916908373ffffffffffffffffffffffffffffffffffffffff160217905550610644806100606000396000f3fe608060405234801561001057600080fd5b50600436106100415760003560e01c806313af403514610046578063284d88b31461008a5780638da5cb5b1461018f575b600080fd5b6100886004803603602081101561005c57600080fd5b81019080803573ffffffffffffffffffffffffffffffffffffffff1690602001909291905050506101d9565b005b61018d600480360360808110156100a057600080fd5b81019080803590602001906401000000008111156100bd57600080fd5b8201836020820111156100cf57600080fd5b803590602001918460018302840111640100000000831117156100f157600080fd5b91908080601f016020809104026020016040519081016040528093929190818152602001838380828437600081840152601f19601f820116905080830192505050505050509192919290803573ffffffffffffffffffffffffffffffffffffffff169060200190929190803573ffffffffffffffffffffffffffffffffffffffff1690602001909291908035906020019092919050505061021c565b005b61019761035c565b604051808273ffffffffffffffffffffffffffffffffffffffff1673ffffffffffffffffffffffffffffffffffffffff16815260200191505060405180910390f35b806000806101000a81548173ffffffffffffffffffffffffffffffffffffffff021916908373ffffffffffffffffffffffffffffffffffffffff16021790555050565b6102c98385836313af403560e01b86604051602401808273ffffffffffffffffffffffffffffffffffffffff1673ffffffffffffffffffffffffffffffffffffffff168152602001915050604051602081830303815290604052907bffffffffffffffffffffffffffffffffffffffffffffffffffffffff19166020820180517bffffffffffffffffffffffffffffffffffffffffffffffffffffffff8381831617835250505050610381565b610316576040517f08c379a0000000000000000000000000000000000000000000000000000000008152600401808060200182810382526000815260200160200191505060405180910390fd5b816000806101000a81548173ffffffffffffffffffffffffffffffffffffffff021916908373ffffffffffffffffffffffffffffffffffffffff16021790555050505050565b6000809054906101000a900473ffffffffffffffffffffffffffffffffffffffff1681565b6000610407858584866040516020018083805190602001908083835b602083106103c0578051825260208201915060208101905060208303925061039d565b6001836020036101000a0380198251168184511680821785525050505050509050018281526020019250505060405160208183030381529060405280519060200120610411565b9050949350505050565b60003373ffffffffffffffffffffffffffffffffffffffff167f96ac8d2b70cb19a47bd45e9d1c941fedfefa9aeb96f474d795c2f568921195a8836040518082815260200191505060405180910390a28373ffffffffffffffffffffffffffffffffffffffff1661049384610485856104b3565b61050b90919063ffffffff16565b73ffffffffffffffffffffffffffffffffffffffff161490509392505050565b60008160405160200180807f19457468657265756d205369676e6564204d6573736167653a0a333200000000815250601c01828152602001915050604051602081830303815290604052805190602001209050919050565b6000604182511461051f5760009050610609565b60008060006020850151925060408501519150606085015160001a90507f7fffffffffffffffffffffffffffffff5d576e7357a4501ddfe92f46681b20a08260001c11156105735760009350505050610609565b601b8160ff161415801561058b5750601c8160ff1614155b1561059c5760009350505050610609565b60018682858560405160008152602001604052604051808581526020018460ff1660ff1681526020018381526020018281526020019450505050506020604051602081039080840390855afa1580156105f9573d6000803e3d6000fd5b5050506020604051035193505050505b9291505056fea265627a7a72315820e03d9c3532b988ce4f6876b91494812cbc3e0e4aab05f8f3b06b9c7f58b57a9f64736f6c63430005100032",
  "source": "// SPDX-License-Identifier: MIT\npragma solidity >=0.4.21 <0.7.0;\nimport \"./ECDSA.sol\";\n\ncontract SimpleMetaTX {\n\n  address public owner;\n\n  constructor() public {\n    owner = msg.sender;\n  }\n\n  function setOwner(address _owner) public {\n    owner = _owner;\n  }\n\n  // metaTX\n  using ECDSA for bytes32;\n  event METATX(address indexed delegate, bytes32 hash);\n\n  function process(address _signer, bytes memory _sig, bytes32 _hash) private returns (bool) {\n    emit METATX(msg.sender, _hash);\n    return _hash.toEthSignedMessageHash().recover(_sig) == _signer;\n  }\n\n  function verify(\n    address _signer,\n    bytes memory _sig,\n    uint256 _timeStamp,\n    bytes memory _encodeWithSelector) internal returns (bool) {\n    return process(\n      _signer, _sig, keccak256(abi.encodePacked(_encodeWithSelector, _timeStamp))\n    );\n  }\n\n  function setOwner(bytes memory _sig, address _signer, address _owner, uint256 _timeStamp) public {\n    require (verify(_signer, _sig, _timeStamp, abi.encodeWithSelector(bytes4(0x13af4035), _owner)), \"\");\n    owner = _owner;\n  }\n\n}\n",
  "sourcePath": "C:/Users/Hyun/Desktop/eip2462-sample/contracts/SimpleMetaTX.sol",
  "compiler": {
    "name": "solc",
    "version": "0.5.16+commit.9c3226ce.Emscripten.clang"
  },
  "schemaVersion": "3.3.4",
  "updatedAt": "2021-08-27T06:01:20.132Z",
  "networkType": "ethereum",
  "devdoc": {
    "methods": {}
  },
  "userdoc": {
    "methods": {}
  }
}